{
  "contractName": "JwToken",
  "abi": [
    {
      "inputs": [
        {
          "internalType": "string",
          "name": "_name",
          "type": "string"
        },
        {
          "internalType": "string",
          "name": "_symbol",
          "type": "string"
        },
        {
          "internalType": "string",
          "name": "_metadataURI",
          "type": "string"
        }
      ],
      "stateMutability": "nonpayable",
      "type": "constructor"
    },
    {
      "anonymous": false,
      "inputs": [
        {
          "indexed": true,
          "internalType": "address",
          "name": "owner",
          "type": "address"
        },
        {
          "indexed": true,
          "internalType": "address",
          "name": "approved",
          "type": "address"
        },
        {
          "indexed": true,
          "internalType": "uint256",
          "name": "tokenId",
          "type": "uint256"
        }
      ],
      "name": "Approval",
      "type": "event"
    },
    {
      "anonymous": false,
      "inputs": [
        {
          "indexed": true,
          "internalType": "address",
          "name": "owner",
          "type": "address"
        },
        {
          "indexed": true,
          "internalType": "address",
          "name": "operator",
          "type": "address"
        },
        {
          "indexed": false,
          "internalType": "bool",
          "name": "approved",
          "type": "bool"
        }
      ],
      "name": "ApprovalForAll",
      "type": "event"
    },
    {
      "anonymous": false,
      "inputs": [
        {
          "indexed": true,
          "internalType": "address",
          "name": "previousOwner",
          "type": "address"
        },
        {
          "indexed": true,
          "internalType": "address",
          "name": "newOwner",
          "type": "address"
        }
      ],
      "name": "OwnershipTransferred",
      "type": "event"
    },
    {
      "anonymous": false,
      "inputs": [
        {
          "indexed": true,
          "internalType": "address",
          "name": "from",
          "type": "address"
        },
        {
          "indexed": true,
          "internalType": "address",
          "name": "to",
          "type": "address"
        },
        {
          "indexed": true,
          "internalType": "uint256",
          "name": "tokenId",
          "type": "uint256"
        }
      ],
      "name": "Transfer",
      "type": "event"
    },
    {
      "inputs": [],
      "name": "MAX_TOKEN_COUNT",
      "outputs": [
        {
          "internalType": "uint256",
          "name": "",
          "type": "uint256"
        }
      ],
      "stateMutability": "view",
      "type": "function",
      "constant": true
    },
    {
      "inputs": [
        {
          "internalType": "uint256",
          "name": "",
          "type": "uint256"
        }
      ],
      "name": "TokenDatas",
      "outputs": [
        {
          "internalType": "uint256",
          "name": "Rank",
          "type": "uint256"
        },
        {
          "internalType": "uint256",
          "name": "Type",
          "type": "uint256"
        }
      ],
      "stateMutability": "view",
      "type": "function",
      "constant": true
    },
    {
      "inputs": [
        {
          "internalType": "address",
          "name": "to",
          "type": "address"
        },
        {
          "internalType": "uint256",
          "name": "tokenId",
          "type": "uint256"
        }
      ],
      "name": "approve",
      "outputs": [],
      "stateMutability": "nonpayable",
      "type": "function"
    },
    {
      "inputs": [
        {
          "internalType": "address",
          "name": "owner",
          "type": "address"
        }
      ],
      "name": "balanceOf",
      "outputs": [
        {
          "internalType": "uint256",
          "name": "",
          "type": "uint256"
        }
      ],
      "stateMutability": "view",
      "type": "function",
      "constant": true
    },
    {
      "inputs": [
        {
          "internalType": "uint256",
          "name": "tokenId",
          "type": "uint256"
        }
      ],
      "name": "getApproved",
      "outputs": [
        {
          "internalType": "address",
          "name": "",
          "type": "address"
        }
      ],
      "stateMutability": "view",
      "type": "function",
      "constant": true
    },
    {
      "inputs": [
        {
          "internalType": "address",
          "name": "owner",
          "type": "address"
        },
        {
          "internalType": "address",
          "name": "operator",
          "type": "address"
        }
      ],
      "name": "isApprovedForAll",
      "outputs": [
        {
          "internalType": "bool",
          "name": "",
          "type": "bool"
        }
      ],
      "stateMutability": "view",
      "type": "function",
      "constant": true
    },
    {
      "inputs": [],
      "name": "metadataURI",
      "outputs": [
        {
          "internalType": "string",
          "name": "",
          "type": "string"
        }
      ],
      "stateMutability": "view",
      "type": "function",
      "constant": true
    },
    {
      "inputs": [],
      "name": "mint_price",
      "outputs": [
        {
          "internalType": "uint256",
          "name": "",
          "type": "uint256"
        }
      ],
      "stateMutability": "view",
      "type": "function",
      "constant": true
    },
    {
      "inputs": [],
      "name": "name",
      "outputs": [
        {
          "internalType": "string",
          "name": "",
          "type": "string"
        }
      ],
      "stateMutability": "view",
      "type": "function",
      "constant": true
    },
    {
      "inputs": [],
      "name": "owner",
      "outputs": [
        {
          "internalType": "address",
          "name": "",
          "type": "address"
        }
      ],
      "stateMutability": "view",
      "type": "function",
      "constant": true
    },
    {
      "inputs": [
        {
          "internalType": "uint256",
          "name": "tokenId",
          "type": "uint256"
        }
      ],
      "name": "ownerOf",
      "outputs": [
        {
          "internalType": "address",
          "name": "",
          "type": "address"
        }
      ],
      "stateMutability": "view",
      "type": "function",
      "constant": true
    },
    {
      "inputs": [],
      "name": "renounceOwnership",
      "outputs": [],
      "stateMutability": "nonpayable",
      "type": "function"
    },
    {
      "inputs": [
        {
          "internalType": "address",
          "name": "from",
          "type": "address"
        },
        {
          "internalType": "address",
          "name": "to",
          "type": "address"
        },
        {
          "internalType": "uint256",
          "name": "tokenId",
          "type": "uint256"
        }
      ],
      "name": "safeTransferFrom",
      "outputs": [],
      "stateMutability": "nonpayable",
      "type": "function"
    },
    {
      "inputs": [
        {
          "internalType": "address",
          "name": "from",
          "type": "address"
        },
        {
          "internalType": "address",
          "name": "to",
          "type": "address"
        },
        {
          "internalType": "uint256",
          "name": "tokenId",
          "type": "uint256"
        },
        {
          "internalType": "bytes",
          "name": "_data",
          "type": "bytes"
        }
      ],
      "name": "safeTransferFrom",
      "outputs": [],
      "stateMutability": "nonpayable",
      "type": "function"
    },
    {
      "inputs": [
        {
          "internalType": "address",
          "name": "operator",
          "type": "address"
        },
        {
          "internalType": "bool",
          "name": "approved",
          "type": "bool"
        }
      ],
      "name": "setApprovalForAll",
      "outputs": [],
      "stateMutability": "nonpayable",
      "type": "function"
    },
    {
      "inputs": [
        {
          "internalType": "bytes4",
          "name": "interfaceId",
          "type": "bytes4"
        }
      ],
      "name": "supportsInterface",
      "outputs": [
        {
          "internalType": "bool",
          "name": "",
          "type": "bool"
        }
      ],
      "stateMutability": "view",
      "type": "function",
      "constant": true
    },
    {
      "inputs": [],
      "name": "symbol",
      "outputs": [
        {
          "internalType": "string",
          "name": "",
          "type": "string"
        }
      ],
      "stateMutability": "view",
      "type": "function",
      "constant": true
    },
    {
      "inputs": [
        {
          "internalType": "uint256",
          "name": "index",
          "type": "uint256"
        }
      ],
      "name": "tokenByIndex",
      "outputs": [
        {
          "internalType": "uint256",
          "name": "",
          "type": "uint256"
        }
      ],
      "stateMutability": "view",
      "type": "function",
      "constant": true
    },
    {
      "inputs": [
        {
          "internalType": "address",
          "name": "owner",
          "type": "address"
        },
        {
          "internalType": "uint256",
          "name": "index",
          "type": "uint256"
        }
      ],
      "name": "tokenOfOwnerByIndex",
      "outputs": [
        {
          "internalType": "uint256",
          "name": "",
          "type": "uint256"
        }
      ],
      "stateMutability": "view",
      "type": "function",
      "constant": true
    },
    {
      "inputs": [],
      "name": "totalSupply",
      "outputs": [
        {
          "internalType": "uint256",
          "name": "",
          "type": "uint256"
        }
      ],
      "stateMutability": "view",
      "type": "function",
      "constant": true
    },
    {
      "inputs": [
        {
          "internalType": "address",
          "name": "from",
          "type": "address"
        },
        {
          "internalType": "address",
          "name": "to",
          "type": "address"
        },
        {
          "internalType": "uint256",
          "name": "tokenId",
          "type": "uint256"
        }
      ],
      "name": "transferFrom",
      "outputs": [],
      "stateMutability": "nonpayable",
      "type": "function"
    },
    {
      "inputs": [
        {
          "internalType": "address",
          "name": "newOwner",
          "type": "address"
        }
      ],
      "name": "transferOwnership",
      "outputs": [],
      "stateMutability": "nonpayable",
      "type": "function"
    },
    {
      "inputs": [],
      "name": "mintToken",
      "outputs": [],
      "stateMutability": "payable",
      "type": "function",
      "payable": true
    },
    {
      "inputs": [
        {
          "internalType": "uint256",
          "name": "_tokenId",
          "type": "uint256"
        }
      ],
      "name": "tokenURI",
      "outputs": [
        {
          "internalType": "string",
          "name": "",
          "type": "string"
        }
      ],
      "stateMutability": "view",
      "type": "function",
      "constant": true
    }
  ],
  "bytecode": "0x6080604052670de0b6b3a7640000600b553480156200001d57600080fd5b506040516200408638038062004086833981810160405281019062000043919062000311565b8282816000908162000056919062000615565b50806001908162000068919062000615565b5050506200008b6200007f620000a660201b60201c565b620000ae60201b60201c565b80600c90816200009c919062000615565b50505050620006fc565b600033905090565b6000600a60009054906101000a900473ffffffffffffffffffffffffffffffffffffffff16905081600a60006101000a81548173ffffffffffffffffffffffffffffffffffffffff021916908373ffffffffffffffffffffffffffffffffffffffff1602179055508173ffffffffffffffffffffffffffffffffffffffff168173ffffffffffffffffffffffffffffffffffffffff167f8be0079c531659141344cd1fd0a4f28419497f9722a3daafe3b4186f6b6457e060405160405180910390a35050565b6000604051905090565b600080fd5b600080fd5b600080fd5b600080fd5b6000601f19601f8301169050919050565b7f4e487b7100000000000000000000000000000000000000000000000000000000600052604160045260246000fd5b620001dd8262000192565b810181811067ffffffffffffffff82111715620001ff57620001fe620001a3565b5b80604052505050565b60006200021462000174565b9050620002228282620001d2565b919050565b600067ffffffffffffffff821115620002455762000244620001a3565b5b620002508262000192565b9050602081019050919050565b60005b838110156200027d57808201518184015260208101905062000260565b838111156200028d576000848401525b50505050565b6000620002aa620002a48462000227565b62000208565b905082815260208101848484011115620002c957620002c86200018d565b5b620002d68482856200025d565b509392505050565b600082601f830112620002f657620002f562000188565b5b81516200030884826020860162000293565b91505092915050565b6000806000606084860312156200032d576200032c6200017e565b5b600084015167ffffffffffffffff8111156200034e576200034d62000183565b5b6200035c86828701620002de565b935050602084015167ffffffffffffffff81111562000380576200037f62000183565b5b6200038e86828701620002de565b925050604084015167ffffffffffffffff811115620003b257620003b162000183565b5b620003c086828701620002de565b9150509250925092565b600081519050919050565b7f4e487b7100000000000000000000000000000000000000000000000000000000600052602260045260246000fd5b600060028204905060018216806200041d57607f821691505b602082108103620004335762000432620003d5565b5b50919050565b60008190508160005260206000209050919050565b60006020601f8301049050919050565b600082821b905092915050565b6000600883026200049d7fffffffffffffffffffffffffffffffffffffffffffffffffffffffffffffffff826200045e565b620004a986836200045e565b95508019841693508086168417925050509392505050565b6000819050919050565b6000819050919050565b6000620004f6620004f0620004ea84620004c1565b620004cb565b620004c1565b9050919050565b6000819050919050565b6200051283620004d5565b6200052a6200052182620004fd565b8484546200046b565b825550505050565b600090565b6200054162000532565b6200054e81848462000507565b505050565b5b8181101562000576576200056a60008262000537565b60018101905062000554565b5050565b601f821115620005c5576200058f8162000439565b6200059a846200044e565b81016020851015620005aa578190505b620005c2620005b9856200044e565b83018262000553565b50505b505050565b600082821c905092915050565b6000620005ea60001984600802620005ca565b1980831691505092915050565b6000620006058383620005d7565b9150826002028217905092915050565b6200062082620003ca565b67ffffffffffffffff8111156200063c576200063b620001a3565b5b62000648825462000404565b620006558282856200057a565b600060209050601f8311600181146200068d576000841562000678578287015190505b620006848582620005f7565b865550620006f4565b601f1984166200069d8662000439565b60005b82811015620006c757848901518255600182019150602085019450602081019050620006a0565b86831015620006e75784890151620006e3601f891682620005d7565b8355505b6001600288020188555050505b505050505050565b61397a806200070c6000396000f3fe60806040526004361061014b5760003560e01c80634f6ccce7116100b6578063a22cb4651161006f578063a22cb4651461049a578063b88d4fde146104c3578063c87b56dd146104ec578063d0bbb0d714610529578063e985e9c514610554578063f2fde38b146105915761014b565b80634f6ccce7146103765780636352211e146103b357806370a08231146103f0578063715018a61461042d5780638da5cb5b1461044457806395d89b411461046f5761014b565b80631a4231a4116101085780631a4231a4146102745780631b8151ae1461029f5780632004ffd9146102dd57806323b872dd146102e75780632f745c591461031057806342842e0e1461034d5761014b565b806301ffc9a71461015057806303ee438c1461018d57806306fdde03146101b8578063081812fc146101e3578063095ea7b31461022057806318160ddd14610249575b600080fd5b34801561015c57600080fd5b5061017760048036038101906101729190612524565b6105ba565b604051610184919061256c565b60405180910390f35b34801561019957600080fd5b506101a2610634565b6040516101af9190612620565b60405180910390f35b3480156101c457600080fd5b506101cd6106c2565b6040516101da9190612620565b60405180910390f35b3480156101ef57600080fd5b5061020a60048036038101906102059190612678565b610754565b60405161021791906126e6565b60405180910390f35b34801561022c57600080fd5b506102476004803603810190610242919061272d565b6107d9565b005b34801561025557600080fd5b5061025e6108f0565b60405161026b919061277c565b60405180910390f35b34801561028057600080fd5b506102896108fd565b604051610296919061277c565b60405180910390f35b3480156102ab57600080fd5b506102c660048036038101906102c19190612678565b610903565b6040516102d4929190612797565b60405180910390f35b6102e5610927565b005b3480156102f357600080fd5b5061030e600480360381019061030991906127c0565b6109f8565b005b34801561031c57600080fd5b506103376004803603810190610332919061272d565b610a58565b604051610344919061277c565b60405180910390f35b34801561035957600080fd5b50610374600480360381019061036f91906127c0565b610afd565b005b34801561038257600080fd5b5061039d60048036038101906103989190612678565b610b1d565b6040516103aa919061277c565b60405180910390f35b3480156103bf57600080fd5b506103da60048036038101906103d59190612678565b610b8e565b6040516103e791906126e6565b60405180910390f35b3480156103fc57600080fd5b5061041760048036038101906104129190612813565b610c3f565b604051610424919061277c565b60405180910390f35b34801561043957600080fd5b50610442610cf6565b005b34801561045057600080fd5b50610459610d7e565b60405161046691906126e6565b60405180910390f35b34801561047b57600080fd5b50610484610da8565b6040516104919190612620565b60405180910390f35b3480156104a657600080fd5b506104c160048036038101906104bc919061286c565b610e3a565b005b3480156104cf57600080fd5b506104ea60048036038101906104e591906129e1565b610e50565b005b3480156104f857600080fd5b50610513600480360381019061050e9190612678565b610eb2565b6040516105209190612620565b60405180910390f35b34801561053557600080fd5b5061053e610f28565b60405161054b919061277c565b60405180910390f35b34801561056057600080fd5b5061057b60048036038101906105769190612a64565b610f2e565b604051610588919061256c565b60405180910390f35b34801561059d57600080fd5b506105b860048036038101906105b39190612813565b610fc2565b005b60007f780e9d63000000000000000000000000000000000000000000000000000000007bffffffffffffffffffffffffffffffffffffffffffffffffffffffff1916827bffffffffffffffffffffffffffffffffffffffffffffffffffffffff1916148061062d575061062c826110b9565b5b9050919050565b600c805461064190612ad3565b80601f016020809104026020016040519081016040528092919081815260200182805461066d90612ad3565b80156106ba5780601f1061068f576101008083540402835291602001916106ba565b820191906000526020600020905b81548152906001019060200180831161069d57829003601f168201915b505050505081565b6060600080546106d190612ad3565b80601f01602080910402602001604051908101604052809291908181526020018280546106fd90612ad3565b801561074a5780601f1061071f5761010080835404028352916020019161074a565b820191906000526020600020905b81548152906001019060200180831161072d57829003601f168201915b5050505050905090565b600061075f8261119b565b61079e576040517f08c379a000000000000000000000000000000000000000000000000000000000815260040161079590612b76565b60405180910390fd5b6004600083815260200190815260200160002060009054906101000a900473ffffffffffffffffffffffffffffffffffffffff169050919050565b60006107e482610b8e565b90508073ffffffffffffffffffffffffffffffffffffffff168373ffffffffffffffffffffffffffffffffffffffff1603610854576040517f08c379a000000000000000000000000000000000000000000000000000000000815260040161084b90612c08565b60405180910390fd5b8073ffffffffffffffffffffffffffffffffffffffff16610873611207565b73ffffffffffffffffffffffffffffffffffffffff1614806108a257506108a18161089c611207565b610f2e565b5b6108e1576040517f08c379a00000000000000000000000000000000000000000000000000000000081526004016108d890612c9a565b60405180910390fd5b6108eb838361120f565b505050565b6000600880549050905090565b600b5481565b600d6020528060005260406000206000915090508060000154908060010154905082565b600b5434101561093657600080fd5b61093e6108f0565b6103e81161094b57600080fd5b600060016109576108f0565b6109619190612ce9565b9050600061096f33836112c8565b905080600d600084815260200190815260200160002060008201518160000155602082015181600101559050506109a4610d7e565b73ffffffffffffffffffffffffffffffffffffffff166108fc349081150290604051600060405180830381858888f193505050501580156109e9573d6000803e3d6000fd5b506109f4338361155d565b5050565b610a09610a03611207565b82611736565b610a48576040517f08c379a0000000000000000000000000000000000000000000000000000000008152600401610a3f90612db1565b60405180910390fd5b610a53838383611814565b505050565b6000610a6383610c3f565b8210610aa4576040517f08c379a0000000000000000000000000000000000000000000000000000000008152600401610a9b90612e43565b60405180910390fd5b600660008473ffffffffffffffffffffffffffffffffffffffff1673ffffffffffffffffffffffffffffffffffffffff168152602001908152602001600020600083815260200190815260200160002054905092915050565b610b1883838360405180602001604052806000815250610e50565b505050565b6000610b276108f0565b8210610b68576040517f08c379a0000000000000000000000000000000000000000000000000000000008152600401610b5f90612ed5565b60405180910390fd5b60088281548110610b7c57610b7b612ef5565b5b90600052602060002001549050919050565b6000806002600084815260200190815260200160002060009054906101000a900473ffffffffffffffffffffffffffffffffffffffff169050600073ffffffffffffffffffffffffffffffffffffffff168173ffffffffffffffffffffffffffffffffffffffff1603610c36576040517f08c379a0000000000000000000000000000000000000000000000000000000008152600401610c2d90612f96565b60405180910390fd5b80915050919050565b60008073ffffffffffffffffffffffffffffffffffffffff168273ffffffffffffffffffffffffffffffffffffffff1603610caf576040517f08c379a0000000000000000000000000000000000000000000000000000000008152600401610ca690613028565b60405180910390fd5b600360008373ffffffffffffffffffffffffffffffffffffffff1673ffffffffffffffffffffffffffffffffffffffff168152602001908152602001600020549050919050565b610cfe611207565b73ffffffffffffffffffffffffffffffffffffffff16610d1c610d7e565b73ffffffffffffffffffffffffffffffffffffffff1614610d72576040517f08c379a0000000000000000000000000000000000000000000000000000000008152600401610d6990613094565b60405180910390fd5b610d7c6000611a7a565b565b6000600a60009054906101000a900473ffffffffffffffffffffffffffffffffffffffff16905090565b606060018054610db790612ad3565b80601f0160208091040260200160405190810160405280929190818152602001828054610de390612ad3565b8015610e305780601f10610e0557610100808354040283529160200191610e30565b820191906000526020600020905b815481529060010190602001808311610e1357829003601f168201915b5050505050905090565b610e4c610e45611207565b8383611b40565b5050565b610e61610e5b611207565b83611736565b610ea0576040517f08c379a0000000000000000000000000000000000000000000000000000000008152600401610e9790612db1565b60405180910390fd5b610eac84848484611cac565b50505050565b60606000610ed5600d600085815260200190815260200160002060000154611d08565b90506000610ef8600d600086815260200190815260200160002060010154611d08565b9050600c8282604051602001610f1093929190613220565b60405160208183030381529060405292505050919050565b6103e881565b6000600560008473ffffffffffffffffffffffffffffffffffffffff1673ffffffffffffffffffffffffffffffffffffffff16815260200190815260200160002060008373ffffffffffffffffffffffffffffffffffffffff1673ffffffffffffffffffffffffffffffffffffffff16815260200190815260200160002060009054906101000a900460ff16905092915050565b610fca611207565b73ffffffffffffffffffffffffffffffffffffffff16610fe8610d7e565b73ffffffffffffffffffffffffffffffffffffffff161461103e576040517f08c379a000000000000000000000000000000000000000000000000000000000815260040161103590613094565b60405180910390fd5b600073ffffffffffffffffffffffffffffffffffffffff168173ffffffffffffffffffffffffffffffffffffffff16036110ad576040517f08c379a00000000000000000000000000000000000000000000000000000000081526004016110a4906132e4565b60405180910390fd5b6110b681611a7a565b50565b60007f80ac58cd000000000000000000000000000000000000000000000000000000007bffffffffffffffffffffffffffffffffffffffffffffffffffffffff1916827bffffffffffffffffffffffffffffffffffffffffffffffffffffffff1916148061118457507f5b5e139f000000000000000000000000000000000000000000000000000000007bffffffffffffffffffffffffffffffffffffffffffffffffffffffff1916827bffffffffffffffffffffffffffffffffffffffffffffffffffffffff1916145b80611194575061119382611e68565b5b9050919050565b60008073ffffffffffffffffffffffffffffffffffffffff166002600084815260200190815260200160002060009054906101000a900473ffffffffffffffffffffffffffffffffffffffff1673ffffffffffffffffffffffffffffffffffffffff1614159050919050565b600033905090565b816004600083815260200190815260200160002060006101000a81548173ffffffffffffffffffffffffffffffffffffffff021916908373ffffffffffffffffffffffffffffffffffffffff160217905550808273ffffffffffffffffffffffffffffffffffffffff1661128283610b8e565b73ffffffffffffffffffffffffffffffffffffffff167f8c5be1e5ebec7d5bd14f71427d1e84f3dd0314c0f7b2291e5b200ac8c7c3b92560405160405180910390a45050565b6112d061249e565b6000606484846040516020016112e792919061336d565b6040516020818303038152906040528051906020012060001c61130a91906133c8565b905061131461249e565b60058210156113a45760018203611340576004816000018181525050600181602001818152505061139f565b60028203611363576004816000018181525050600281602001818152505061139e565b60038203611386576004816000018181525050600381602001818152505061139d565b600481600001818152505060048160200181815250505b5b5b611552565b600d8210156114375760078210156113d15760038160000181815250506001816020018181525050611432565b60098210156113f55760038160000181815250506002816020018181525050611431565b600b8210156114195760038160000181815250506003816020018181525050611430565b600381600001818152505060048160200181815250505b5b5b611551565b60258210156114ca57601382101561146457600281600001818152505060018160200181815250506114c5565b601982101561148857600281600001818152505060028160200181815250506114c4565b601f8210156114ac57600281600001818152505060038160200181815250506114c3565b600281600001818152505060048160200181815250505b5b5b611550565b60348210156114ee576001816000018181525050600181602001818152505061154f565b6044821015611512576001816000018181525050600281602001818152505061154e565b6054821015611536576001816000018181525050600381602001818152505061154d565b600181600001818152505060048160200181815250505b5b5b5b5b5b809250505092915050565b600073ffffffffffffffffffffffffffffffffffffffff168273ffffffffffffffffffffffffffffffffffffffff16036115cc576040517f08c379a00000000000000000000000000000000000000000000000000000000081526004016115c390613445565b60405180910390fd5b6115d58161119b565b15611615576040517f08c379a000000000000000000000000000000000000000000000000000000000815260040161160c906134b1565b60405180910390fd5b61162160008383611ed2565b6001600360008473ffffffffffffffffffffffffffffffffffffffff1673ffffffffffffffffffffffffffffffffffffffff16815260200190815260200160002060008282546116719190612ce9565b92505081905550816002600083815260200190815260200160002060006101000a81548173ffffffffffffffffffffffffffffffffffffffff021916908373ffffffffffffffffffffffffffffffffffffffff160217905550808273ffffffffffffffffffffffffffffffffffffffff16600073ffffffffffffffffffffffffffffffffffffffff167fddf252ad1be2c89b69c2b068fc378daa952ba7f163c4a11628f55a4df523b3ef60405160405180910390a461173260008383611fe4565b5050565b60006117418261119b565b611780576040517f08c379a000000000000000000000000000000000000000000000000000000000815260040161177790613543565b60405180910390fd5b600061178b83610b8e565b90508073ffffffffffffffffffffffffffffffffffffffff168473ffffffffffffffffffffffffffffffffffffffff1614806117cd57506117cc8185610f2e565b5b8061180b57508373ffffffffffffffffffffffffffffffffffffffff166117f384610754565b73ffffffffffffffffffffffffffffffffffffffff16145b91505092915050565b8273ffffffffffffffffffffffffffffffffffffffff1661183482610b8e565b73ffffffffffffffffffffffffffffffffffffffff161461188a576040517f08c379a0000000000000000000000000000000000000000000000000000000008152600401611881906135d5565b60405180910390fd5b600073ffffffffffffffffffffffffffffffffffffffff168273ffffffffffffffffffffffffffffffffffffffff16036118f9576040517f08c379a00000000000000000000000000000000000000000000000000000000081526004016118f090613667565b60405180910390fd5b611904838383611ed2565b61190f60008261120f565b6001600360008573ffffffffffffffffffffffffffffffffffffffff1673ffffffffffffffffffffffffffffffffffffffff168152602001908152602001600020600082825461195f9190613687565b925050819055506001600360008473ffffffffffffffffffffffffffffffffffffffff1673ffffffffffffffffffffffffffffffffffffffff16815260200190815260200160002060008282546119b69190612ce9565b92505081905550816002600083815260200190815260200160002060006101000a81548173ffffffffffffffffffffffffffffffffffffffff021916908373ffffffffffffffffffffffffffffffffffffffff160217905550808273ffffffffffffffffffffffffffffffffffffffff168473ffffffffffffffffffffffffffffffffffffffff167fddf252ad1be2c89b69c2b068fc378daa952ba7f163c4a11628f55a4df523b3ef60405160405180910390a4611a75838383611fe4565b505050565b6000600a60009054906101000a900473ffffffffffffffffffffffffffffffffffffffff16905081600a60006101000a81548173ffffffffffffffffffffffffffffffffffffffff021916908373ffffffffffffffffffffffffffffffffffffffff1602179055508173ffffffffffffffffffffffffffffffffffffffff168173ffffffffffffffffffffffffffffffffffffffff167f8be0079c531659141344cd1fd0a4f28419497f9722a3daafe3b4186f6b6457e060405160405180910390a35050565b8173ffffffffffffffffffffffffffffffffffffffff168373ffffffffffffffffffffffffffffffffffffffff1603611bae576040517f08c379a0000000000000000000000000000000000000000000000000000000008152600401611ba590613707565b60405180910390fd5b80600560008573ffffffffffffffffffffffffffffffffffffffff1673ffffffffffffffffffffffffffffffffffffffff16815260200190815260200160002060008473ffffffffffffffffffffffffffffffffffffffff1673ffffffffffffffffffffffffffffffffffffffff16815260200190815260200160002060006101000a81548160ff0219169083151502179055508173ffffffffffffffffffffffffffffffffffffffff168373ffffffffffffffffffffffffffffffffffffffff167f17307eab39ab6107e8899845ad3d59bd9653f200f220920489ca2b5937696c3183604051611c9f919061256c565b60405180910390a3505050565b611cb7848484611814565b611cc384848484611fe9565b611d02576040517f08c379a0000000000000000000000000000000000000000000000000000000008152600401611cf990613799565b60405180910390fd5b50505050565b606060008203611d4f576040518060400160405280600181526020017f30000000000000000000000000000000000000000000000000000000000000008152509050611e63565b600082905060005b60008214611d81578080611d6a906137b9565b915050600a82611d7a9190613801565b9150611d57565b60008167ffffffffffffffff811115611d9d57611d9c6128b6565b5b6040519080825280601f01601f191660200182016040528015611dcf5781602001600182028036833780820191505090505b5090505b60008514611e5c57600182611de89190613687565b9150600a85611df791906133c8565b6030611e039190612ce9565b60f81b818381518110611e1957611e18612ef5565b5b60200101907effffffffffffffffffffffffffffffffffffffffffffffffffffffffffffff1916908160001a905350600a85611e559190613801565b9450611dd3565b8093505050505b919050565b60007f01ffc9a7000000000000000000000000000000000000000000000000000000007bffffffffffffffffffffffffffffffffffffffffffffffffffffffff1916827bffffffffffffffffffffffffffffffffffffffffffffffffffffffff1916149050919050565b611edd838383612170565b600073ffffffffffffffffffffffffffffffffffffffff168373ffffffffffffffffffffffffffffffffffffffff1603611f1f57611f1a81612175565b611f5e565b8173ffffffffffffffffffffffffffffffffffffffff168373ffffffffffffffffffffffffffffffffffffffff1614611f5d57611f5c83826121be565b5b5b600073ffffffffffffffffffffffffffffffffffffffff168273ffffffffffffffffffffffffffffffffffffffff1603611fa057611f9b8161232b565b611fdf565b8273ffffffffffffffffffffffffffffffffffffffff168273ffffffffffffffffffffffffffffffffffffffff1614611fde57611fdd82826123fc565b5b5b505050565b505050565b600061200a8473ffffffffffffffffffffffffffffffffffffffff1661247b565b15612163578373ffffffffffffffffffffffffffffffffffffffff1663150b7a02612033611207565b8786866040518563ffffffff1660e01b81526004016120559493929190613887565b6020604051808303816000875af192505050801561209157506040513d601f19601f8201168201806040525081019061208e91906138e8565b60015b612113573d80600081146120c1576040519150601f19603f3d011682016040523d82523d6000602084013e6120c6565b606091505b50600081510361210b576040517f08c379a000000000000000000000000000000000000000000000000000000000815260040161210290613799565b60405180910390fd5b805181602001fd5b63150b7a0260e01b7bffffffffffffffffffffffffffffffffffffffffffffffffffffffff1916817bffffffffffffffffffffffffffffffffffffffffffffffffffffffff191614915050612168565b600190505b949350505050565b505050565b6008805490506009600083815260200190815260200160002081905550600881908060018154018082558091505060019003906000526020600020016000909190919091505550565b600060016121cb84610c3f565b6121d59190613687565b90506000600760008481526020019081526020016000205490508181146122ba576000600660008673ffffffffffffffffffffffffffffffffffffffff1673ffffffffffffffffffffffffffffffffffffffff168152602001908152602001600020600084815260200190815260200160002054905080600660008773ffffffffffffffffffffffffffffffffffffffff1673ffffffffffffffffffffffffffffffffffffffff168152602001908152602001600020600084815260200190815260200160002081905550816007600083815260200190815260200160002081905550505b6007600084815260200190815260200160002060009055600660008573ffffffffffffffffffffffffffffffffffffffff1673ffffffffffffffffffffffffffffffffffffffff16815260200190815260200160002060008381526020019081526020016000206000905550505050565b6000600160088054905061233f9190613687565b905060006009600084815260200190815260200160002054905060006008838154811061236f5761236e612ef5565b5b90600052602060002001549050806008838154811061239157612390612ef5565b5b9060005260206000200181905550816009600083815260200190815260200160002081905550600960008581526020019081526020016000206000905560088054806123e0576123df613915565b5b6001900381819060005260206000200160009055905550505050565b600061240783610c3f565b905081600660008573ffffffffffffffffffffffffffffffffffffffff1673ffffffffffffffffffffffffffffffffffffffff168152602001908152602001600020600083815260200190815260200160002081905550806007600084815260200190815260200160002081905550505050565b6000808273ffffffffffffffffffffffffffffffffffffffff163b119050919050565b604051806040016040528060008152602001600081525090565b6000604051905090565b600080fd5b600080fd5b60007fffffffff0000000000000000000000000000000000000000000000000000000082169050919050565b612501816124cc565b811461250c57600080fd5b50565b60008135905061251e816124f8565b92915050565b60006020828403121561253a576125396124c2565b5b60006125488482850161250f565b91505092915050565b60008115159050919050565b61256681612551565b82525050565b6000602082019050612581600083018461255d565b92915050565b600081519050919050565b600082825260208201905092915050565b60005b838110156125c15780820151818401526020810190506125a6565b838111156125d0576000848401525b50505050565b6000601f19601f8301169050919050565b60006125f282612587565b6125fc8185612592565b935061260c8185602086016125a3565b612615816125d6565b840191505092915050565b6000602082019050818103600083015261263a81846125e7565b905092915050565b6000819050919050565b61265581612642565b811461266057600080fd5b50565b6000813590506126728161264c565b92915050565b60006020828403121561268e5761268d6124c2565b5b600061269c84828501612663565b91505092915050565b600073ffffffffffffffffffffffffffffffffffffffff82169050919050565b60006126d0826126a5565b9050919050565b6126e0816126c5565b82525050565b60006020820190506126fb60008301846126d7565b92915050565b61270a816126c5565b811461271557600080fd5b50565b60008135905061272781612701565b92915050565b60008060408385031215612744576127436124c2565b5b600061275285828601612718565b925050602061276385828601612663565b9150509250929050565b61277681612642565b82525050565b6000602082019050612791600083018461276d565b92915050565b60006040820190506127ac600083018561276d565b6127b9602083018461276d565b9392505050565b6000806000606084860312156127d9576127d86124c2565b5b60006127e786828701612718565b93505060206127f886828701612718565b925050604061280986828701612663565b9150509250925092565b600060208284031215612829576128286124c2565b5b600061283784828501612718565b91505092915050565b61284981612551565b811461285457600080fd5b50565b60008135905061286681612840565b92915050565b60008060408385031215612883576128826124c2565b5b600061289185828601612718565b92505060206128a285828601612857565b9150509250929050565b600080fd5b600080fd5b7f4e487b7100000000000000000000000000000000000000000000000000000000600052604160045260246000fd5b6128ee826125d6565b810181811067ffffffffffffffff8211171561290d5761290c6128b6565b5b80604052505050565b60006129206124b8565b905061292c82826128e5565b919050565b600067ffffffffffffffff82111561294c5761294b6128b6565b5b612955826125d6565b9050602081019050919050565b82818337600083830152505050565b600061298461297f84612931565b612916565b9050828152602081018484840111156129a05761299f6128b1565b5b6129ab848285612962565b509392505050565b600082601f8301126129c8576129c76128ac565b5b81356129d8848260208601612971565b91505092915050565b600080600080608085870312156129fb576129fa6124c2565b5b6000612a0987828801612718565b9450506020612a1a87828801612718565b9350506040612a2b87828801612663565b925050606085013567ffffffffffffffff811115612a4c57612a4b6124c7565b5b612a58878288016129b3565b91505092959194509250565b60008060408385031215612a7b57612a7a6124c2565b5b6000612a8985828601612718565b9250506020612a9a85828601612718565b9150509250929050565b7f4e487b7100000000000000000000000000000000000000000000000000000000600052602260045260246000fd5b60006002820490506001821680612aeb57607f821691505b602082108103612afe57612afd612aa4565b5b50919050565b7f4552433732313a20617070726f76656420717565727920666f72206e6f6e657860008201527f697374656e7420746f6b656e0000000000000000000000000000000000000000602082015250565b6000612b60602c83612592565b9150612b6b82612b04565b604082019050919050565b60006020820190508181036000830152612b8f81612b53565b9050919050565b7f4552433732313a20617070726f76616c20746f2063757272656e74206f776e6560008201527f7200000000000000000000000000000000000000000000000000000000000000602082015250565b6000612bf2602183612592565b9150612bfd82612b96565b604082019050919050565b60006020820190508181036000830152612c2181612be5565b9050919050565b7f4552433732313a20617070726f76652063616c6c6572206973206e6f74206f7760008201527f6e6572206e6f7220617070726f76656420666f7220616c6c0000000000000000602082015250565b6000612c84603883612592565b9150612c8f82612c28565b604082019050919050565b60006020820190508181036000830152612cb381612c77565b9050919050565b7f4e487b7100000000000000000000000000000000000000000000000000000000600052601160045260246000fd5b6000612cf482612642565b9150612cff83612642565b9250827fffffffffffffffffffffffffffffffffffffffffffffffffffffffffffffffff03821115612d3457612d33612cba565b5b828201905092915050565b7f4552433732313a207472616e736665722063616c6c6572206973206e6f74206f60008201527f776e6572206e6f7220617070726f766564000000000000000000000000000000602082015250565b6000612d9b603183612592565b9150612da682612d3f565b604082019050919050565b60006020820190508181036000830152612dca81612d8e565b9050919050565b7f455243373231456e756d657261626c653a206f776e657220696e646578206f7560008201527f74206f6620626f756e6473000000000000000000000000000000000000000000602082015250565b6000612e2d602b83612592565b9150612e3882612dd1565b604082019050919050565b60006020820190508181036000830152612e5c81612e20565b9050919050565b7f455243373231456e756d657261626c653a20676c6f62616c20696e646578206f60008201527f7574206f6620626f756e64730000000000000000000000000000000000000000602082015250565b6000612ebf602c83612592565b9150612eca82612e63565b604082019050919050565b60006020820190508181036000830152612eee81612eb2565b9050919050565b7f4e487b7100000000000000000000000000000000000000000000000000000000600052603260045260246000fd5b7f4552433732313a206f776e657220717565727920666f72206e6f6e657869737460008201527f656e7420746f6b656e0000000000000000000000000000000000000000000000602082015250565b6000612f80602983612592565b9150612f8b82612f24565b604082019050919050565b60006020820190508181036000830152612faf81612f73565b9050919050565b7f4552433732313a2062616c616e636520717565727920666f7220746865207a6560008201527f726f206164647265737300000000000000000000000000000000000000000000602082015250565b6000613012602a83612592565b915061301d82612fb6565b604082019050919050565b6000602082019050818103600083015261304181613005565b9050919050565b7f4f776e61626c653a2063616c6c6572206973206e6f7420746865206f776e6572600082015250565b600061307e602083612592565b915061308982613048565b602082019050919050565b600060208201905081810360008301526130ad81613071565b9050919050565b600081905092915050565b60008190508160005260206000209050919050565b600081546130e181612ad3565b6130eb81866130b4565b94506001821660008114613106576001811461311b5761314e565b60ff198316865281151582028601935061314e565b613124856130bf565b60005b8381101561314657815481890152600182019150602081019050613127565b838801955050505b50505092915050565b7f2f00000000000000000000000000000000000000000000000000000000000000600082015250565b600061318d6001836130b4565b915061319882613157565b600182019050919050565b60006131ae82612587565b6131b881856130b4565b93506131c88185602086016125a3565b80840191505092915050565b7f2e6a736f6e000000000000000000000000000000000000000000000000000000600082015250565b600061320a6005836130b4565b9150613215826131d4565b600582019050919050565b600061322c82866130d4565b915061323782613180565b915061324382856131a3565b915061324e82613180565b915061325a82846131a3565b9150613265826131fd565b9150819050949350505050565b7f4f776e61626c653a206e6577206f776e657220697320746865207a65726f206160008201527f6464726573730000000000000000000000000000000000000000000000000000602082015250565b60006132ce602683612592565b91506132d982613272565b604082019050919050565b600060208201905081810360008301526132fd816132c1565b9050919050565b60008160601b9050919050565b600061331c82613304565b9050919050565b600061332e82613311565b9050919050565b613346613341826126c5565b613323565b82525050565b6000819050919050565b61336761336282612642565b61334c565b82525050565b60006133798285613335565b6014820191506133898284613356565b6020820191508190509392505050565b7f4e487b7100000000000000000000000000000000000000000000000000000000600052601260045260246000fd5b60006133d382612642565b91506133de83612642565b9250826133ee576133ed613399565b5b828206905092915050565b7f4552433732313a206d696e7420746f20746865207a65726f2061646472657373600082015250565b600061342f602083612592565b915061343a826133f9565b602082019050919050565b6000602082019050818103600083015261345e81613422565b9050919050565b7f4552433732313a20746f6b656e20616c7265616479206d696e74656400000000600082015250565b600061349b601c83612592565b91506134a682613465565b602082019050919050565b600060208201905081810360008301526134ca8161348e565b9050919050565b7f4552433732313a206f70657261746f7220717565727920666f72206e6f6e657860008201527f697374656e7420746f6b656e0000000000000000000000000000000000000000602082015250565b600061352d602c83612592565b9150613538826134d1565b604082019050919050565b6000602082019050818103600083015261355c81613520565b9050919050565b7f4552433732313a207472616e736665722066726f6d20696e636f72726563742060008201527f6f776e6572000000000000000000000000000000000000000000000000000000602082015250565b60006135bf602583612592565b91506135ca82613563565b604082019050919050565b600060208201905081810360008301526135ee816135b2565b9050919050565b7f4552433732313a207472616e7366657220746f20746865207a65726f2061646460008201527f7265737300000000000000000000000000000000000000000000000000000000602082015250565b6000613651602483612592565b915061365c826135f5565b604082019050919050565b6000602082019050818103600083015261368081613644565b9050919050565b600061369282612642565b915061369d83612642565b9250828210156136b0576136af612cba565b5b828203905092915050565b7f4552433732313a20617070726f766520746f2063616c6c657200000000000000600082015250565b60006136f1601983612592565b91506136fc826136bb565b602082019050919050565b60006020820190508181036000830152613720816136e4565b9050919050565b7f4552433732313a207472616e7366657220746f206e6f6e20455243373231526560008201527f63656976657220696d706c656d656e7465720000000000000000000000000000602082015250565b6000613783603283612592565b915061378e82613727565b604082019050919050565b600060208201905081810360008301526137b281613776565b9050919050565b60006137c482612642565b91507fffffffffffffffffffffffffffffffffffffffffffffffffffffffffffffffff82036137f6576137f5612cba565b5b600182019050919050565b600061380c82612642565b915061381783612642565b92508261382757613826613399565b5b828204905092915050565b600081519050919050565b600082825260208201905092915050565b600061385982613832565b613863818561383d565b93506138738185602086016125a3565b61387c816125d6565b840191505092915050565b600060808201905061389c60008301876126d7565b6138a960208301866126d7565b6138b6604083018561276d565b81810360608301526138c8818461384e565b905095945050505050565b6000815190506138e2816124f8565b92915050565b6000602082840312156138fe576138fd6124c2565b5b600061390c848285016138d3565b91505092915050565b7f4e487b7100000000000000000000000000000000000000000000000000000000600052603160045260246000fdfea2646970667358221220dc775cc9ef753a2ea0767086449c488fccf9e0bf99af965ffcbec633d4d786fa64736f6c634300080f0033",
  "immutableReferences": {},
  "source": "// SPDX-License-Identifier: MIT\npragma solidity ^0.8.15;\n\nimport \"./node_modules/openzeppelin-solidity/contracts/token/ERC721/extensions/ERC721Enumerable.sol\";\n\nimport \"./node_modules/openzeppelin-solidity/contracts/access/Ownable.sol\";\n//         owner    EOA  .\n\nimport \"./node_modules/openzeppelin-solidity/contracts/utils/Strings.sol\";\n// uint => bytes => string    \n\ncontract JwToken is ERC721Enumerable, Ownable{\n\n    // NFT    \n    // Solidity   constant\n    uint constant public MAX_TOKEN_COUNT = 1000;\n\n    uint public mint_price = 1 ether;\n    //       ,\n    // Solidity 1 ether    10**18 .\n\n    string public metadataURI;\n    \n    constructor(string memory _name, string memory _symbol, string memory _metadataURI) ERC721(_name, _symbol) {\n        metadataURI = _metadataURI;\n    }\n\n    // tokenId    rank, type   \n    struct TokenData {\n        uint Rank;\n        uint Type;\n    }\n\n    mapping(uint => TokenData) public TokenDatas;\n\n    // mint     \n    // override     \n    // mintToken()      . CA   NFT  .\n    // swap   CA      \n    // CA      .\n    function mintToken() public payable {\n\n        require(msg.value >= mint_price);\n        require(MAX_TOKEN_COUNT > ERC721Enumerable.totalSupply());\n\n        //  + 1  tokenId  \n        //    NFT   ,,\n        uint tokenId = ERC721Enumerable.totalSupply() + 1;\n\n        // _tokenId   metadata rank  type   TokenDatas  \n        //         .\n        //      .\n        TokenData memory random = getRandomNum(msg.sender, tokenId);\n        TokenDatas[tokenId] = random;\n\n        // payable address     \n        // CA ->     \n        payable(Ownable.owner()).transfer(msg.value);\n\n        // mintToken()    NFT \n        _mint(msg.sender, tokenId);\n    }\n\n    // tokenURI  -> override  \n    // ERC721  tokenURI virtual   .\n    function tokenURI(uint _tokenId) public override view returns (string memory) {\n        // _tokenId -> rank, type  // rank 1, type 4 -> (1, 4)\n        // url return\n        // baseurl http://localhost:3000/metadata\n        // return http://localhost:3000/metadata/1/4.json\n        \n        // uint Rank = TokenDatas[_tokenId].Rank;\n        // uint Type = TokenDatas[_tokenId].Type;\n        // uint -> string    \n        // uint -> bytes -> string  \n        // utils    Strings.sol  \n\n        string memory Rank = Strings.toString(TokenDatas[_tokenId].Rank);\n        string memory Type = Strings.toString(TokenDatas[_tokenId].Type);\n        // abi.encodePacked(\"http://localhost:3000/metadata\", \"/\", Rank, \"/\", Type, \".json\")\n        return string(abi.encodePacked(metadataURI, \"/\", Rank, \"/\", Type, \".json\"));\n    }\n\n    // TokenData   \n    function getRandomNum(address _owner, uint _tokenId) private pure returns (TokenData memory) {\n        // Solidity random  \n        //           \n\n        // abi.encodePacked(_owner, _tokenId); //    \n        uint randomNum = uint(keccak256(abi.encodePacked(_owner, _tokenId)))%100; // Solidity     \n        // keccak256 -> 32 byte\n        //  : keccak256()   string   .\n\n        // block   storage    , ex) \n        // block        memory\n        //          . (   )\n        TokenData memory data;\n        //   data   \n        /*\n            {\n                Rank: uint,\n                Type: uint\n            }\n        */\n\n        if (randomNum < 5) {\n            if (randomNum == 1) {\n                data.Rank = 4;\n                data.Type = 1;\n            } else if (randomNum == 2) {\n                data.Rank = 4;\n                data.Type = 2;\n            } else if (randomNum == 3) {\n                data.Rank = 4;\n                data.Type = 3;\n            } else {\n                data.Rank = 4;\n                data.Type = 4;\n            }\n        } else if (randomNum < 13) {\n            if (randomNum < 7) {\n                data.Rank = 3;\n                data.Type = 1;\n            } else if (randomNum < 9) {\n                data.Rank = 3;\n                data.Type = 2;\n            } else if (randomNum < 11) {\n                data.Rank = 3;\n                data.Type = 3;\n            } else {\n                data.Rank = 3;\n                data.Type = 4;\n            }\n        } else if (randomNum < 37) {\n            if (randomNum < 19) {\n                data.Rank = 2;\n                data.Type = 1;\n            } else if (randomNum < 25) {\n                data.Rank = 2;\n                data.Type = 2;\n            } else if (randomNum < 31) {\n                data.Rank = 2;\n                data.Type = 3;\n            } else {\n                data.Rank = 2;\n                data.Type = 4;\n            }\n        } else {\n            if (randomNum < 52) {\n                data.Rank = 1;\n                data.Type = 1;\n            } else if (randomNum < 68) {\n                data.Rank = 1;\n                data.Type = 2;\n            } else if (randomNum < 84) {\n                data.Rank = 1;\n                data.Type = 3;\n            } else {\n                data.Rank = 1;\n                data.Type = 4;\n            }\n        }\n\n        return data;\n\n    }\n}\n\n// IPFS  ->     \n// P2P       \n//     . ()\n//           \n//   http \n\n// IPFS        -> pinata\n// https://www.pinata.cloud/\n// CID : pinata  \n// pinata API key  ->   \n//           \n//       .\n\n",
  "sourcePath": "/Users/bitkunst/Desktop/workspace/ethereum/Ethereum_Study/220728/truffle/contracts/JwToken.sol",
  "compiler": {
    "name": "solc",
    "version": "0.8.15+commit.e14f2714.Emscripten.clang"
  },
  "schemaVersion": "3.4.8",
  "updatedAt": "2022-07-28T02:28:21.837Z",
  "networkType": "ethereum",
  "devdoc": {
    "kind": "dev",
    "methods": {
      "approve(address,uint256)": {
        "details": "See {IERC721-approve}."
      },
      "balanceOf(address)": {
        "details": "See {IERC721-balanceOf}."
      },
      "getApproved(uint256)": {
        "details": "See {IERC721-getApproved}."
      },
      "isApprovedForAll(address,address)": {
        "details": "See {IERC721-isApprovedForAll}."
      },
      "name()": {
        "details": "See {IERC721Metadata-name}."
      },
      "owner()": {
        "details": "Returns the address of the current owner."
      },
      "ownerOf(uint256)": {
        "details": "See {IERC721-ownerOf}."
      },
      "renounceOwnership()": {
        "details": "Leaves the contract without owner. It will not be possible to call `onlyOwner` functions anymore. Can only be called by the current owner. NOTE: Renouncing ownership will leave the contract without an owner, thereby removing any functionality that is only available to the owner."
      },
      "safeTransferFrom(address,address,uint256)": {
        "details": "See {IERC721-safeTransferFrom}."
      },
      "safeTransferFrom(address,address,uint256,bytes)": {
        "details": "See {IERC721-safeTransferFrom}."
      },
      "setApprovalForAll(address,bool)": {
        "details": "See {IERC721-setApprovalForAll}."
      },
      "supportsInterface(bytes4)": {
        "details": "See {IERC165-supportsInterface}."
      },
      "symbol()": {
        "details": "See {IERC721Metadata-symbol}."
      },
      "tokenByIndex(uint256)": {
        "details": "See {IERC721Enumerable-tokenByIndex}."
      },
      "tokenOfOwnerByIndex(address,uint256)": {
        "details": "See {IERC721Enumerable-tokenOfOwnerByIndex}."
      },
      "totalSupply()": {
        "details": "See {IERC721Enumerable-totalSupply}."
      },
      "transferFrom(address,address,uint256)": {
        "details": "See {IERC721-transferFrom}."
      },
      "transferOwnership(address)": {
        "details": "Transfers ownership of the contract to a new account (`newOwner`). Can only be called by the current owner."
      }
    },
    "version": 1
  },
  "userdoc": {
    "kind": "user",
    "methods": {},
    "version": 1
  }
}