{
  "contractName": "IngToken",
  "abi": [
    {
      "inputs": [],
      "stateMutability": "nonpayable",
      "type": "constructor"
    },
    {
      "anonymous": false,
      "inputs": [
        {
          "indexed": true,
          "internalType": "address",
          "name": "owner",
          "type": "address"
        },
        {
          "indexed": true,
          "internalType": "address",
          "name": "spender",
          "type": "address"
        },
        {
          "indexed": false,
          "internalType": "uint256",
          "name": "value",
          "type": "uint256"
        }
      ],
      "name": "Approval",
      "type": "event"
    },
    {
      "anonymous": false,
      "inputs": [
        {
          "indexed": true,
          "internalType": "address",
          "name": "from",
          "type": "address"
        },
        {
          "indexed": true,
          "internalType": "address",
          "name": "to",
          "type": "address"
        },
        {
          "indexed": false,
          "internalType": "uint256",
          "name": "value",
          "type": "uint256"
        }
      ],
      "name": "Transfer",
      "type": "event"
    },
    {
      "inputs": [],
      "name": "_name",
      "outputs": [
        {
          "internalType": "string",
          "name": "",
          "type": "string"
        }
      ],
      "stateMutability": "view",
      "type": "function",
      "constant": true
    },
    {
      "inputs": [],
      "name": "_symbol",
      "outputs": [
        {
          "internalType": "string",
          "name": "",
          "type": "string"
        }
      ],
      "stateMutability": "view",
      "type": "function",
      "constant": true
    },
    {
      "inputs": [],
      "name": "_totalSupply",
      "outputs": [
        {
          "internalType": "uint256",
          "name": "",
          "type": "uint256"
        }
      ],
      "stateMutability": "view",
      "type": "function",
      "constant": true
    },
    {
      "inputs": [
        {
          "internalType": "address",
          "name": "owner",
          "type": "address"
        },
        {
          "internalType": "address",
          "name": "spender",
          "type": "address"
        }
      ],
      "name": "allowance",
      "outputs": [
        {
          "internalType": "uint256",
          "name": "",
          "type": "uint256"
        }
      ],
      "stateMutability": "view",
      "type": "function",
      "constant": true
    },
    {
      "inputs": [
        {
          "internalType": "address",
          "name": "spender",
          "type": "address"
        },
        {
          "internalType": "uint256",
          "name": "amount",
          "type": "uint256"
        }
      ],
      "name": "approve",
      "outputs": [
        {
          "internalType": "bool",
          "name": "",
          "type": "bool"
        }
      ],
      "stateMutability": "nonpayable",
      "type": "function"
    },
    {
      "inputs": [
        {
          "internalType": "address",
          "name": "account",
          "type": "address"
        }
      ],
      "name": "balanceOf",
      "outputs": [
        {
          "internalType": "uint256",
          "name": "",
          "type": "uint256"
        }
      ],
      "stateMutability": "view",
      "type": "function",
      "constant": true
    },
    {
      "inputs": [],
      "name": "decimals",
      "outputs": [
        {
          "internalType": "uint8",
          "name": "",
          "type": "uint8"
        }
      ],
      "stateMutability": "view",
      "type": "function",
      "constant": true
    },
    {
      "inputs": [
        {
          "internalType": "address",
          "name": "spender",
          "type": "address"
        },
        {
          "internalType": "uint256",
          "name": "subtractedValue",
          "type": "uint256"
        }
      ],
      "name": "decreaseAllowance",
      "outputs": [
        {
          "internalType": "bool",
          "name": "",
          "type": "bool"
        }
      ],
      "stateMutability": "nonpayable",
      "type": "function"
    },
    {
      "inputs": [
        {
          "internalType": "address",
          "name": "spender",
          "type": "address"
        },
        {
          "internalType": "uint256",
          "name": "addedValue",
          "type": "uint256"
        }
      ],
      "name": "increaseAllowance",
      "outputs": [
        {
          "internalType": "bool",
          "name": "",
          "type": "bool"
        }
      ],
      "stateMutability": "nonpayable",
      "type": "function"
    },
    {
      "inputs": [],
      "name": "name",
      "outputs": [
        {
          "internalType": "string",
          "name": "",
          "type": "string"
        }
      ],
      "stateMutability": "view",
      "type": "function",
      "constant": true
    },
    {
      "inputs": [],
      "name": "symbol",
      "outputs": [
        {
          "internalType": "string",
          "name": "",
          "type": "string"
        }
      ],
      "stateMutability": "view",
      "type": "function",
      "constant": true
    },
    {
      "inputs": [],
      "name": "totalSupply",
      "outputs": [
        {
          "internalType": "uint256",
          "name": "",
          "type": "uint256"
        }
      ],
      "stateMutability": "view",
      "type": "function",
      "constant": true
    },
    {
      "inputs": [
        {
          "internalType": "address",
          "name": "to",
          "type": "address"
        },
        {
          "internalType": "uint256",
          "name": "amount",
          "type": "uint256"
        }
      ],
      "name": "transfer",
      "outputs": [
        {
          "internalType": "bool",
          "name": "",
          "type": "bool"
        }
      ],
      "stateMutability": "nonpayable",
      "type": "function"
    },
    {
      "inputs": [
        {
          "internalType": "address",
          "name": "from",
          "type": "address"
        },
        {
          "internalType": "address",
          "name": "to",
          "type": "address"
        },
        {
          "internalType": "uint256",
          "name": "amount",
          "type": "uint256"
        }
      ],
      "name": "transferFrom",
      "outputs": [
        {
          "internalType": "bool",
          "name": "",
          "type": "bool"
        }
      ],
      "stateMutability": "nonpayable",
      "type": "function"
    }
  ],
  "bytecode": "0x60806040526040518060400160405280600881526020017f496e67546f6b656e000000000000000000000000000000000000000000000000815250600590816200004a91906200063c565b506040518060400160405280600381526020017f49544b0000000000000000000000000000000000000000000000000000000000815250600690816200009191906200063c565b50620000a26200023760201b60201c565b600a620000b09190620008b3565b620186a0620000c0919062000904565b600755348015620000d057600080fd5b5060058054620000e0906200042b565b80601f01602080910402602001604051908101604052809291908181526020018280546200010e906200042b565b80156200015f5780601f1062000133576101008083540402835291602001916200015f565b820191906000526020600020905b8154815290600101906020018083116200014157829003601f168201915b50505050506006805462000173906200042b565b80601f0160208091040260200160405190810160405280929190818152602001828054620001a1906200042b565b8015620001f25780601f10620001c657610100808354040283529160200191620001f2565b820191906000526020600020905b815481529060010190602001808311620001d457829003601f168201915b505050505081600390816200020891906200063c565b5080600490816200021a91906200063c565b50505062000231336007546200024060201b60201c565b62000a73565b60006012905090565b600073ffffffffffffffffffffffffffffffffffffffff168273ffffffffffffffffffffffffffffffffffffffff1603620002b2576040517f08c379a0000000000000000000000000000000000000000000000000000000008152600401620002a990620009c6565b60405180910390fd5b620002c660008383620003b860201b60201c565b8060026000828254620002da9190620009e8565b92505081905550806000808473ffffffffffffffffffffffffffffffffffffffff1673ffffffffffffffffffffffffffffffffffffffff1681526020019081526020016000206000828254620003319190620009e8565b925050819055508173ffffffffffffffffffffffffffffffffffffffff16600073ffffffffffffffffffffffffffffffffffffffff167fddf252ad1be2c89b69c2b068fc378daa952ba7f163c4a11628f55a4df523b3ef8360405162000398919062000a56565b60405180910390a3620003b460008383620003bd60201b60201c565b5050565b505050565b505050565b600081519050919050565b7f4e487b7100000000000000000000000000000000000000000000000000000000600052604160045260246000fd5b7f4e487b7100000000000000000000000000000000000000000000000000000000600052602260045260246000fd5b600060028204905060018216806200044457607f821691505b6020821081036200045a5762000459620003fc565b5b50919050565b60008190508160005260206000209050919050565b60006020601f8301049050919050565b600082821b905092915050565b600060088302620004c47fffffffffffffffffffffffffffffffffffffffffffffffffffffffffffffffff8262000485565b620004d0868362000485565b95508019841693508086168417925050509392505050565b6000819050919050565b6000819050919050565b60006200051d620005176200051184620004e8565b620004f2565b620004e8565b9050919050565b6000819050919050565b6200053983620004fc565b62000551620005488262000524565b84845462000492565b825550505050565b600090565b6200056862000559565b620005758184846200052e565b505050565b5b818110156200059d57620005916000826200055e565b6001810190506200057b565b5050565b601f821115620005ec57620005b68162000460565b620005c18462000475565b81016020851015620005d1578190505b620005e9620005e08562000475565b8301826200057a565b50505b505050565b600082821c905092915050565b60006200061160001984600802620005f1565b1980831691505092915050565b60006200062c8383620005fe565b9150826002028217905092915050565b6200064782620003c2565b67ffffffffffffffff811115620006635762000662620003cd565b5b6200066f82546200042b565b6200067c828285620005a1565b600060209050601f831160018114620006b457600084156200069f578287015190505b620006ab85826200061e565b8655506200071b565b601f198416620006c48662000460565b60005b82811015620006ee57848901518255600182019150602085019450602081019050620006c7565b868310156200070e57848901516200070a601f891682620005fe565b8355505b6001600288020188555050505b505050505050565b7f4e487b7100000000000000000000000000000000000000000000000000000000600052601160045260246000fd5b60008160011c9050919050565b6000808291508390505b6001851115620007b15780860481111562000789576200078862000723565b5b6001851615620007995780820291505b8081029050620007a98562000752565b945062000769565b94509492505050565b600082620007cc57600190506200089f565b81620007dc57600090506200089f565b8160018114620007f55760028114620008005762000836565b60019150506200089f565b60ff84111562000815576200081462000723565b5b8360020a9150848211156200082f576200082e62000723565b5b506200089f565b5060208310610133831016604e8410600b8410161715620008705782820a9050838111156200086a576200086962000723565b5b6200089f565b6200087f84848460016200075f565b9250905081840481111562000899576200089862000723565b5b81810290505b9392505050565b600060ff82169050919050565b6000620008c082620004e8565b9150620008cd83620008a6565b9250620008fc7fffffffffffffffffffffffffffffffffffffffffffffffffffffffffffffffff8484620007ba565b905092915050565b60006200091182620004e8565b91506200091e83620004e8565b9250817fffffffffffffffffffffffffffffffffffffffffffffffffffffffffffffffff04831182151516156200095a576200095962000723565b5b828202905092915050565b600082825260208201905092915050565b7f45524332303a206d696e7420746f20746865207a65726f206164647265737300600082015250565b6000620009ae601f8362000965565b9150620009bb8262000976565b602082019050919050565b60006020820190508181036000830152620009e1816200099f565b9050919050565b6000620009f582620004e8565b915062000a0283620004e8565b9250827fffffffffffffffffffffffffffffffffffffffffffffffffffffffffffffffff0382111562000a3a5762000a3962000723565b5b828201905092915050565b62000a5081620004e8565b82525050565b600060208201905062000a6d600083018462000a45565b92915050565b6114208062000a836000396000f3fe608060405234801561001057600080fd5b50600436106100ea5760003560e01c806370a082311161008c578063a9059cbb11610066578063a9059cbb14610275578063b09f1266146102a5578063d28d8852146102c3578063dd62ed3e146102e1576100ea565b806370a08231146101f757806395d89b4114610227578063a457c2d714610245576100ea565b806323b872dd116100c857806323b872dd1461015b578063313ce5671461018b57806339509351146101a95780633eaaf86b146101d9576100ea565b806306fdde03146100ef578063095ea7b31461010d57806318160ddd1461013d575b600080fd5b6100f7610311565b6040516101049190610cdb565b60405180910390f35b61012760048036038101906101229190610d96565b6103a3565b6040516101349190610df1565b60405180910390f35b6101456103c6565b6040516101529190610e1b565b60405180910390f35b61017560048036038101906101709190610e36565b6103d0565b6040516101829190610df1565b60405180910390f35b6101936103ff565b6040516101a09190610ea5565b60405180910390f35b6101c360048036038101906101be9190610d96565b610408565b6040516101d09190610df1565b60405180910390f35b6101e161043f565b6040516101ee9190610e1b565b60405180910390f35b610211600480360381019061020c9190610ec0565b610445565b60405161021e9190610e1b565b60405180910390f35b61022f61048d565b60405161023c9190610cdb565b60405180910390f35b61025f600480360381019061025a9190610d96565b61051f565b60405161026c9190610df1565b60405180910390f35b61028f600480360381019061028a9190610d96565b610596565b60405161029c9190610df1565b60405180910390f35b6102ad6105b9565b6040516102ba9190610cdb565b60405180910390f35b6102cb610647565b6040516102d89190610cdb565b60405180910390f35b6102fb60048036038101906102f69190610eed565b6106d5565b6040516103089190610e1b565b60405180910390f35b60606003805461032090610f5c565b80601f016020809104026020016040519081016040528092919081815260200182805461034c90610f5c565b80156103995780601f1061036e57610100808354040283529160200191610399565b820191906000526020600020905b81548152906001019060200180831161037c57829003601f168201915b5050505050905090565b6000806103ae61075c565b90506103bb818585610764565b600191505092915050565b6000600254905090565b6000806103db61075c565b90506103e885828561092d565b6103f38585856109b9565b60019150509392505050565b60006012905090565b60008061041361075c565b905061043481858561042585896106d5565b61042f9190610fbc565b610764565b600191505092915050565b60075481565b60008060008373ffffffffffffffffffffffffffffffffffffffff1673ffffffffffffffffffffffffffffffffffffffff168152602001908152602001600020549050919050565b60606004805461049c90610f5c565b80601f01602080910402602001604051908101604052809291908181526020018280546104c890610f5c565b80156105155780601f106104ea57610100808354040283529160200191610515565b820191906000526020600020905b8154815290600101906020018083116104f857829003601f168201915b5050505050905090565b60008061052a61075c565b9050600061053882866106d5565b90508381101561057d576040517f08c379a000000000000000000000000000000000000000000000000000000000815260040161057490611084565b60405180910390fd5b61058a8286868403610764565b60019250505092915050565b6000806105a161075c565b90506105ae8185856109b9565b600191505092915050565b600680546105c690610f5c565b80601f01602080910402602001604051908101604052809291908181526020018280546105f290610f5c565b801561063f5780601f106106145761010080835404028352916020019161063f565b820191906000526020600020905b81548152906001019060200180831161062257829003601f168201915b505050505081565b6005805461065490610f5c565b80601f016020809104026020016040519081016040528092919081815260200182805461068090610f5c565b80156106cd5780601f106106a2576101008083540402835291602001916106cd565b820191906000526020600020905b8154815290600101906020018083116106b057829003601f168201915b505050505081565b6000600160008473ffffffffffffffffffffffffffffffffffffffff1673ffffffffffffffffffffffffffffffffffffffff16815260200190815260200160002060008373ffffffffffffffffffffffffffffffffffffffff1673ffffffffffffffffffffffffffffffffffffffff16815260200190815260200160002054905092915050565b600033905090565b600073ffffffffffffffffffffffffffffffffffffffff168373ffffffffffffffffffffffffffffffffffffffff16036107d3576040517f08c379a00000000000000000000000000000000000000000000000000000000081526004016107ca90611116565b60405180910390fd5b600073ffffffffffffffffffffffffffffffffffffffff168273ffffffffffffffffffffffffffffffffffffffff1603610842576040517f08c379a0000000000000000000000000000000000000000000000000000000008152600401610839906111a8565b60405180910390fd5b80600160008573ffffffffffffffffffffffffffffffffffffffff1673ffffffffffffffffffffffffffffffffffffffff16815260200190815260200160002060008473ffffffffffffffffffffffffffffffffffffffff1673ffffffffffffffffffffffffffffffffffffffff168152602001908152602001600020819055508173ffffffffffffffffffffffffffffffffffffffff168373ffffffffffffffffffffffffffffffffffffffff167f8c5be1e5ebec7d5bd14f71427d1e84f3dd0314c0f7b2291e5b200ac8c7c3b925836040516109209190610e1b565b60405180910390a3505050565b600061093984846106d5565b90507fffffffffffffffffffffffffffffffffffffffffffffffffffffffffffffffff81146109b357818110156109a5576040517f08c379a000000000000000000000000000000000000000000000000000000000815260040161099c90611214565b60405180910390fd5b6109b28484848403610764565b5b50505050565b600073ffffffffffffffffffffffffffffffffffffffff168373ffffffffffffffffffffffffffffffffffffffff1603610a28576040517f08c379a0000000000000000000000000000000000000000000000000000000008152600401610a1f906112a6565b60405180910390fd5b600073ffffffffffffffffffffffffffffffffffffffff168273ffffffffffffffffffffffffffffffffffffffff1603610a97576040517f08c379a0000000000000000000000000000000000000000000000000000000008152600401610a8e90611338565b60405180910390fd5b610aa2838383610c38565b60008060008573ffffffffffffffffffffffffffffffffffffffff1673ffffffffffffffffffffffffffffffffffffffff16815260200190815260200160002054905081811015610b28576040517f08c379a0000000000000000000000000000000000000000000000000000000008152600401610b1f906113ca565b60405180910390fd5b8181036000808673ffffffffffffffffffffffffffffffffffffffff1673ffffffffffffffffffffffffffffffffffffffff16815260200190815260200160002081905550816000808573ffffffffffffffffffffffffffffffffffffffff1673ffffffffffffffffffffffffffffffffffffffff1681526020019081526020016000206000828254610bbb9190610fbc565b925050819055508273ffffffffffffffffffffffffffffffffffffffff168473ffffffffffffffffffffffffffffffffffffffff167fddf252ad1be2c89b69c2b068fc378daa952ba7f163c4a11628f55a4df523b3ef84604051610c1f9190610e1b565b60405180910390a3610c32848484610c3d565b50505050565b505050565b505050565b600081519050919050565b600082825260208201905092915050565b60005b83811015610c7c578082015181840152602081019050610c61565b83811115610c8b576000848401525b50505050565b6000601f19601f8301169050919050565b6000610cad82610c42565b610cb78185610c4d565b9350610cc7818560208601610c5e565b610cd081610c91565b840191505092915050565b60006020820190508181036000830152610cf58184610ca2565b905092915050565b600080fd5b600073ffffffffffffffffffffffffffffffffffffffff82169050919050565b6000610d2d82610d02565b9050919050565b610d3d81610d22565b8114610d4857600080fd5b50565b600081359050610d5a81610d34565b92915050565b6000819050919050565b610d7381610d60565b8114610d7e57600080fd5b50565b600081359050610d9081610d6a565b92915050565b60008060408385031215610dad57610dac610cfd565b5b6000610dbb85828601610d4b565b9250506020610dcc85828601610d81565b9150509250929050565b60008115159050919050565b610deb81610dd6565b82525050565b6000602082019050610e066000830184610de2565b92915050565b610e1581610d60565b82525050565b6000602082019050610e306000830184610e0c565b92915050565b600080600060608486031215610e4f57610e4e610cfd565b5b6000610e5d86828701610d4b565b9350506020610e6e86828701610d4b565b9250506040610e7f86828701610d81565b9150509250925092565b600060ff82169050919050565b610e9f81610e89565b82525050565b6000602082019050610eba6000830184610e96565b92915050565b600060208284031215610ed657610ed5610cfd565b5b6000610ee484828501610d4b565b91505092915050565b60008060408385031215610f0457610f03610cfd565b5b6000610f1285828601610d4b565b9250506020610f2385828601610d4b565b9150509250929050565b7f4e487b7100000000000000000000000000000000000000000000000000000000600052602260045260246000fd5b60006002820490506001821680610f7457607f821691505b602082108103610f8757610f86610f2d565b5b50919050565b7f4e487b7100000000000000000000000000000000000000000000000000000000600052601160045260246000fd5b6000610fc782610d60565b9150610fd283610d60565b9250827fffffffffffffffffffffffffffffffffffffffffffffffffffffffffffffffff0382111561100757611006610f8d565b5b828201905092915050565b7f45524332303a2064656372656173656420616c6c6f77616e63652062656c6f7760008201527f207a65726f000000000000000000000000000000000000000000000000000000602082015250565b600061106e602583610c4d565b915061107982611012565b604082019050919050565b6000602082019050818103600083015261109d81611061565b9050919050565b7f45524332303a20617070726f76652066726f6d20746865207a65726f2061646460008201527f7265737300000000000000000000000000000000000000000000000000000000602082015250565b6000611100602483610c4d565b915061110b826110a4565b604082019050919050565b6000602082019050818103600083015261112f816110f3565b9050919050565b7f45524332303a20617070726f766520746f20746865207a65726f20616464726560008201527f7373000000000000000000000000000000000000000000000000000000000000602082015250565b6000611192602283610c4d565b915061119d82611136565b604082019050919050565b600060208201905081810360008301526111c181611185565b9050919050565b7f45524332303a20696e73756666696369656e7420616c6c6f77616e6365000000600082015250565b60006111fe601d83610c4d565b9150611209826111c8565b602082019050919050565b6000602082019050818103600083015261122d816111f1565b9050919050565b7f45524332303a207472616e736665722066726f6d20746865207a65726f20616460008201527f6472657373000000000000000000000000000000000000000000000000000000602082015250565b6000611290602583610c4d565b915061129b82611234565b604082019050919050565b600060208201905081810360008301526112bf81611283565b9050919050565b7f45524332303a207472616e7366657220746f20746865207a65726f206164647260008201527f6573730000000000000000000000000000000000000000000000000000000000602082015250565b6000611322602383610c4d565b915061132d826112c6565b604082019050919050565b6000602082019050818103600083015261135181611315565b9050919050565b7f45524332303a207472616e7366657220616d6f756e742065786365656473206260008201527f616c616e63650000000000000000000000000000000000000000000000000000602082015250565b60006113b4602683610c4d565b91506113bf82611358565b604082019050919050565b600060208201905081810360008301526113e3816113a7565b905091905056fea2646970667358221220f0a5ded9ccc0e64b1441f825aa0657df7ad3826c3805ec15d665261b9f55ef6164736f6c634300080f0033",
  "immutableReferences": {},
  "source": "// SPDX-License-Identifier: MIT\npragma solidity ^0.8.15;\n\n// import [] from '../../HelloWorld.sol';\n// Solidity import     .(   )\n\nimport \"../node_modules/openzeppelin-solidity/contracts/token/ERC20/ERC20.sol\";\n// ERC20 import \n\n// ERC20  \ncontract IngToken is ERC20 {\n    string public _name = \"IngToken\";\n    string public _symbol = \"ITK\";\n    uint256 public _totalSupply = 100000 * (10 ** decimals());\n\n    // ERC20.sol      . \n    constructor() ERC20(_name, _symbol) {\n        \n        // mint() :      \n        _mint(msg.sender, _totalSupply);\n        \n    }\n    \n}\n\n",
  "sourcePath": "/home/bitkunst/Ethereum/220721/truffle/contracts/IngToken.sol",
  "compiler": {
    "name": "solc",
    "version": "0.8.15+commit.e14f2714.Emscripten.clang"
  },
  "schemaVersion": "3.4.8",
  "updatedAt": "2022-07-21T02:02:18.067Z",
  "networkType": "ethereum",
  "devdoc": {
    "kind": "dev",
    "methods": {
      "allowance(address,address)": {
        "details": "See {IERC20-allowance}."
      },
      "approve(address,uint256)": {
        "details": "See {IERC20-approve}. NOTE: If `amount` is the maximum `uint256`, the allowance is not updated on `transferFrom`. This is semantically equivalent to an infinite approval. Requirements: - `spender` cannot be the zero address."
      },
      "balanceOf(address)": {
        "details": "See {IERC20-balanceOf}."
      },
      "decimals()": {
        "details": "Returns the number of decimals used to get its user representation. For example, if `decimals` equals `2`, a balance of `505` tokens should be displayed to a user as `5.05` (`505 / 10 ** 2`). Tokens usually opt for a value of 18, imitating the relationship between Ether and Wei. This is the value {ERC20} uses, unless this function is overridden; NOTE: This information is only used for _display_ purposes: it in no way affects any of the arithmetic of the contract, including {IERC20-balanceOf} and {IERC20-transfer}."
      },
      "decreaseAllowance(address,uint256)": {
        "details": "Atomically decreases the allowance granted to `spender` by the caller. This is an alternative to {approve} that can be used as a mitigation for problems described in {IERC20-approve}. Emits an {Approval} event indicating the updated allowance. Requirements: - `spender` cannot be the zero address. - `spender` must have allowance for the caller of at least `subtractedValue`."
      },
      "increaseAllowance(address,uint256)": {
        "details": "Atomically increases the allowance granted to `spender` by the caller. This is an alternative to {approve} that can be used as a mitigation for problems described in {IERC20-approve}. Emits an {Approval} event indicating the updated allowance. Requirements: - `spender` cannot be the zero address."
      },
      "name()": {
        "details": "Returns the name of the token."
      },
      "symbol()": {
        "details": "Returns the symbol of the token, usually a shorter version of the name."
      },
      "totalSupply()": {
        "details": "See {IERC20-totalSupply}."
      },
      "transfer(address,uint256)": {
        "details": "See {IERC20-transfer}. Requirements: - `to` cannot be the zero address. - the caller must have a balance of at least `amount`."
      },
      "transferFrom(address,address,uint256)": {
        "details": "See {IERC20-transferFrom}. Emits an {Approval} event indicating the updated allowance. This is not required by the EIP. See the note at the beginning of {ERC20}. NOTE: Does not update the allowance if the current allowance is the maximum `uint256`. Requirements: - `from` and `to` cannot be the zero address. - `from` must have a balance of at least `amount`. - the caller must have allowance for ``from``'s tokens of at least `amount`."
      }
    },
    "version": 1
  },
  "userdoc": {
    "kind": "user",
    "methods": {},
    "version": 1
  }
}